:0C0000000C94D2000C9447010C94740185
:10000C000C948E010C9400000C9400000C940000D5
:10001C000C9400000C9400000C9400000C94FF0055
:10002C000C9400000C9400000C9400000C94000044
:10003C000C9400000C9400000C9400000C94000034
:10004C000C9400000C940000FEFDFBF72A302337C3
:10005C0038393435363132331027E80364000A005E
:10006C0001000010000110000100000A000F000048
:10007C00000400003132333457726F6E67205061C8
:10008C007373212020202020256420417474656D19
:10009C00707473210050617373204368616E6765DF
:1000AC00642E004E6F74204D6174636821202020F3
:1000BC0020202054727920416761696E21005772AB
:1000CC006F6E6720506173732120202020205472A2
:1000DC007920416761696E2100456E74657220500C
:1000EC00617373776F72643A005361666520556E65
:1000FC006C6F636B656400456E746572204E65773A
:10010C0020506173733A00506173732041676169C9
:10011C006E3A0053616665206973204C6F636B65A2
:10012C00642E00414C455254212121004C6F636BCD
:10013C0020446F776E20666F723A00253032643A35
:10014C0025303264000080C00900050076000400F0
:10015C00060380000E006002A1001B006E02AF00BF
:10016C001B008902CA001000A402E5000E00B402B4
:10017C00F5001000C20203010C00D20213011000A2
:10018C00DE021F010900EE022F010F00F7023801F9
:10019C000200560352010000F894EE27ECBBF1E08C
:1001AC00FBBFEBBFE5BF8DE0A2E0BB27ED938A95CB
:1001BC00E9F780E098E0A0E6ED930197E9F7E4E534
:1001CC00F1E085919591009761F0A591B59105901D
:1001DC001590BF01F00105900D920197E1F7FB011D
:1001EC00F0CFEFE5EDBFE8E0EEBFC0E6D2E00C9457
:1001FC00BB020A921A929A93AA93BA93EA93FA932D
:10020C00EFB7EA930E945C0621F000240C140D0455
:10021C0009F401C02CC00E945C06C1F4E1E05E2E22
:10022C00F30131973F01062C072879F4D501E3E05F
:10023C00F0E00E943A07AAE0B0E00E9422073A964A
:10024C003F01E0E0E9BFCC24DD2411C00C2C0D28CB
:10025C0071F4F40131974F01082C092841F4EFE0B7
:10026C00F0E04F01E0E0E9BFE5E0F0E06F01E9917B
:10027C00EFBFF991E991B991A991999119900990D0
:10028C0018950E9461060E946F0619F40E9474066C
:10029C0024C0EE3FAFEFFA0719F4E1E0F0E01CC028
:1002AC00ED3FAFEFFA0791F0E130A0E0FA0719F457
:1002BC000E94740612C0E230A0E0FA0719F4E1E0E3
:1002CC00F0E00AC0E330A0E0FA0739F4A6E1B3E0AD
:1002DC000E947B06E2E0F0E06F0139C10E946106EA
:1002EC00E5E0F0E0EC15FD0509F431C1839B05C098
:1002FC00E2E0E9BFCC24DD240AC00E948106E0E0E4
:10030C00E9BFEFE0F0E04F01E4E0F0E06F011FC166
:10031C000E946106A0970E946A070FEF10E014304C
:10032C00C8F4E12FF0E0EC5AFF4F04900BBA39B34C
:10033C00307F303F69F0CD9B00E0CE9B01E0CF9B3E
:10034C0002E0A02FEFEFB0E0FFEFEA17FB0711F48C
:10035C001F5FE5CF0E946F0649F40E94840619F0D6
:10036C00A491AA3211F40E94740604C0EE3FAFEFC0
:10037C00FA0751F40E94840619F0A491AA3219F4D8
:10038C00E1E0F0E06F0104C0ED3FAFEFFA0761F47C
:10039C000E94840619F0A491AA3229F40E948106C5
:1003AC00E2E0F0E06F0103C0309709F04AC00E9410
:1003BC009106A491AA32C9F50E949C0651F4AA2474
:1003CC00BB24E0E0E9BFEFE0F0E04F01E1E0F0E05A
:1003DC002AC0F50131965F01D501E3E0F0E00E94FF
:1003EC003F07309729F4E2E0E9BFE4E6F0E01BC0F8
:1003FC00FE013496FA93EA93E0E2F0E0FA93EA9382
:10040C00E4E8F0E0FA93EA93E3E0F0E0EA19FB09A0
:10041C000E94A60684E00E9421062A96DE0114960C
:10042C007BD1EFEFFFEF6F010BC00E94840619F434
:10043C000E94AB0605C00E94AF06E491DB01EC9371
:10044C0081C0E130A0E0FA0759F40E949106A49112
:10045C00AA3229F40E948106E2E0F0E06F0172C03A
:10046C00E230A0E0FA07A9F40E949106A491AA3206
:10047C0021F4E3E0F0E06F010BC00E94840619F454
:10048C000E94AB0605C00E94AF06E491DB01EC9321
:10049C0059C0E330A0E0FA0799F50E949106A491A7
:1004AC00AA32D1F4E6E2F3E0FA93EA93A6E1B3E0E0
:1004BC000E946D04E03049F4A0E6B2E02DD1A6E232
:1004CC00B3E0E4D0EEEFFFEF05C0AEE6B2E024D12E
:1004DC00EDEFFFEF6F0113C00E94840621F4A6E23A
:1004EC00B3E0B3D00CC0A6E2B3E00E948104EA5D95
:1004FC00FC4FBF010E949106E491DB01EC9322C0FA
:10050C00E530A0E0FA07F1F40E949106A491AA321A
:10051C0071F40E949C0621F4E1E0F0E06F0106C04A
:10052C00ECEFFFEF6F01A9E8B2E0F6D00BC00E9430
:10053C00840619F40E94AB0605C00E94AF06E49134
:10054C00DB01EC93E0EFEBBB0E947107A496E99101
:10055C00EFBFF991E991B991A9919991899179910B
:10056C006991F990199009901895EFE0EABBE0EFCA
:10057C00EBBBE0E0E4BBE5BBE1BB929AEBB7E06E12
:10058C00EBBFE6E0E5BFE0E0E4BFE0EEEABFEFE0A2
:10059C00E3BFE0E0E2BFEBE3ECBFE0E0E9BFA0E1EA
:1005AC000E943F0478940E945C0611F4C3D0FBCFE8
:1005BC0028D10E946F0621F0EE3FAFEFFA0709F445
:1005CC0004C0ED3FAFEFFA0709F404C0EC3FAFEF06
:1005DC00FA0711F479D033C0309719F4A4EAB2E0D9
:1005EC0026C0E130A0E0FA0719F4A4EBB2E026C073
:1005FC00E230A0E0FA0719F4A2ECB2E018C0E33044
:10060C00A0E0FA0739F4A2EDB2E00E94B706A6E228
:10061C00B3E014C0E430A0E0FA0719F4AEEDB2E098
:10062C000DC0E530A0E0FA0751F4AEEEB2E010D107
:10063C00E0E0EA93A1E0D6D0A6E1B3E009D1A4EFC3
:10064C00B1E00E940307AFCFFFCFBA93AA93A88162
:10065C00B9810E9481043197A881B981AE0FBF1F67
:10066C00E0E0EC93CCC00E94BE0600E010E000314C
:10067C00E0E01E0754F4F801AA81BB81AE0FBF1F46
:10068C00E0E0EC930F5F1F4FF2CF1AC00E94BE0642
:10069C00A6E0B3E0E8DF00E010E00031E0E01E0788
:1006AC007CF4F801EA5FFC4F0F01F801AA81BB81D1
:1006BC00AE0FBF1FEC91D001EC930F5F1F4FEDCF2E
:1006CC001981088124960895A6E3B3E0C1D0A8EE61
:1006DC00B3E00E9403070E946F0619F40E9474068F
:1006EC001AC0EE3FAFEFFA0719F4E1E0F0E012C0E8
:1006FC00ED3FAFEFFA0729F40E948106E2E0F0E04B
:10070C0009C0EC3FAFEFFA0731F4A6E1B3E0ABDF81
:10071C00E5E0F0E06F010895BA93AA93E6E3F3E005
:10072C00FA93EA93EA81FB81FA93EA93A0E20E949E
:10073C009A0465C060970E946A07552021F40E94B4
:10074C0071070C941F06D301ECE3F0E00E943A070A
:10075C008F01D301ECE3F0E00E943F079F0151D0E1
:10076C00A7EFB2E00E94B706FE013496FA93EA9323
:10077C00E9E0F0E0FA93EA93E7E4F1E0FA93EA9324
:10078C00F8010E94A606F9010E94A60688E00E94C4
:10079C0021062E96DE0114965BD055240E9471071B
:1007AC000C941F06AA93E5B3EF70AE2FE881E07F9F
:1007BC00EA2BE5BB82E08A95F1F7AA9A82E08A954A
:1007CC00F1F7AA9882E08A95F1F77FC0AA93A881E5
:1007DC00E9DFE881E295E883A881E4DF81E18A958D
:1007EC00F1F773C0AA93E881F0E0EA5AFC4FE0817C
:1007FC00A981AE0FEBDF4980E881E0935A03229682
:10080C000895A2E00E94C306ACE0E0DFA1E00E94E4
:10081C00C306E0E0E0935A034E2E0895AA93A881F4
:10082C00AA3021F0E0915B034E1660F0E0E0EA9311
:10083C00A0915A03AF5FA0935A03D4DFA881AA30CA
:10084C0009F443C04394A89AA881C0DFA8983DC07E
:10085C00BA93AA931A93A981BA81ED91A983BA8309
:10086C001E2FE03019F0A12FD9DFF5CF1881239678
:10087C000895AA93E4B3E06FE4BBA29AA09AA19A5C
:10088C00AA98A898A998E881E0935B03E058E093B4
:10089C005803E881E054E0935903A4E1B0E00E94CE
:1008AC0003070E94C9060E94C9060E94C906A0E25D
:1008BC0079DF81E28A95F1F7A8E288DFA4E086DF90
:1008CC00A5E884DFA6E082DF9CDF21960895BA9329
:1008DC00AA93E991F991A991B9916D9171916717C9
:1008EC0021F46623D1F7EE270895671BE1F3E1E0CD
:1008FC0008F4E2500895BA93AA93A991B991EE27FE
:10090C00FF276D91662311F03196FBCF0895BA93B2
:10091C00AA93AA27BB27E991F9910590002011F021
:10092C001196FBCFFD010895AA937991E991F99164
:10093C00A991B991CD01772351F07A9561916D937D
:10094C006623C9F7772319F07A956D93FBCFFC01D9
:10095C0008950E94BE06AA81BB8112960E945B0775
:10096C00309759F1AA81BB8114960E945B078F01C5
:10097C00309761F00230E0E01E0798F0F8013197F3
:10098C008F01AA81BB811496ED93FC93AA81BB8144
:10099C001296ED91FD913196FE93EE933197AC81C9
:1009AC00A083AA81BB810E945B07FF232AF0ED91F3
:1009BC00FD913196FE93EE9306C0AA81BB81EFEFB9
:1009CC00FFEFED93FC931981088125960895BA9356
:1009DC00AA9326970E94680710E0AC85BD85E0E0DD
:1009EC00F0E0ED93FC93EA89FB893196EA8BFB8B63
:1009FC003197E4912E2FE03009F415C1E12FE0304E
:100A0C0039F4253211F411E002C00E94D0060AC15B
:100A1C00E130A9F4253219F40E94D00602C112E08B
:100A2C0040E000E02D3211F401E0FCC02B3211F457
:100A3C004BE2F8C0203211F440E2F4C002C0E230C4
:100A4C0039F450E013E0203311F40068EBC003C01C
:100A5C00E33009F0E7C0203310F02A3308F007C068
:100A6C00AAE05A9F502DE22FE0535E0FDBC0E22F1D
:100A7C00E33649F40E94D706E889F989A481AA9340
:100A8C000E94DD06CEC0E33741F40E94D7060E94D7
:100A9C00E3060E9481041E2F0AC0E03761F40E9415
:100AAC00D7060E94E3060E948D041E2F0860026088
:100ABC000F7730E034C0E43611F0E93611F40460FD
:100ACC0002C0E53731F4E4E6F0E0EE83FF8315E095
:100ADC000CC0E83511F4086003C0E83709F0A1C078
:100AEC00EEE6F0E0EE83FF8314E002FF14C00E94F8
:100AFC00D7060E94ED06AB85AA233AF4EA85FB855E
:100B0C000E941107EA87FB874DE2403011F01F5F0E
:100B1C0001C00B7F04C00E94D7060E94ED0600FDA9
:100B2C0011C0151778F407FF08C002FF04C00B7F33
:100B3C00242F115001C020E301C020E20E94D006F6
:100B4C005150EFCF312F01FF17C03030A1F003FF10
:100B5C0006C0EE81FF812591EE83FF8305C0AE8137
:100B6C00BF812D91AE83BF830E94D006503009F017
:100B7C0051503150EACF4BC020E3EE81FF810E94EF
:100B8C005F07E887F987EE81FF813296EE83FF835A
:100B9C00E885F985AA85BB85AE17BF0750F02F5F96
:100BAC00A885B985EA85FB85EA1BFB0BEA87FB87E1
:100BBC00EFCF2A3328F003FF02C0295F01C0295D63
:100BCC0004FD1AC0213320F4A885B985119709F4C6
:100BDC0009C0531710F000FF01C013C020E207FF3B
:100BEC000BC020E3006102FF07C00B7F4A930E94F9
:100BFC00DD06503009F051500E94D006503009F0FB
:100C0C0051503150A885B985129708F0B5CF00FF27
:100C1C0008C0503031F05150E0E2EA930E94DD06FA
:100C2C00F8CF10E0E0CEAC85BD850E945B070E943A
:100C3C006F0764960895FF92F82E26970E946A0714
:100C4C0020E030E00E94F506309719F4EFEFFFEF4B
:100C5C0028C00E94FC06309719F1DE0116960E94FE
:100C6C000D078D010E94F506EE83FF830E94FC06A2
:100C7C00E887F987DE011A960E940D070E945B0730
:100C8C00FA93EA931A930A93EFEAF4E0FA93EA934D
:100C9C00DE011A969CDE9F01AE81BF81E0E0EC93F1
:100CAC00F9010E9471072A96FF900895E4E6F0E09E
:100CBC00EC15FD0508950A921A92FA926A937A93AA
:100CCC008A939A93AA93BA93EA93FA93EFB7EA9317
:100CDC000895F601EF3FAFEFFA070895A6E1B3E0F0
:100CEC000E943903CC24DD2408950E943903A6E226
:100CFC00B3E00C943903A6E1B3E0F7CFA3E01A9F5D
:100D0C00F001E85AFF4FDF01E02FF0E0EA0FFB1F84
:100D1C00A491A3320895A3E01A9FF001E85AFF4F63
:100D2C00DF01E02FF0E0EA0FFB1F0895E6E0F3E0AF
:100D3C00FA93EA93A6E1B3E00E946D04E0300895C3
:100D4C000E9415070E9463070895A6E1B3E00C9476
:100D5C002B03A6E1B3E00E948104EA5EFC4FBF01C5
:100D6C00DACF0E942E04E0E0EA93A1E00C94F803A1
:100D7C00BA93AA931A930A9308950E94EC03A3E0E2
:100D8C00B0E00C940307A0E30E94D80381E28A959B
:100D9C00F1F708952A93AD85BE85EF85F8890995FD
:100DAC000895E889F9893497E88BF98B0895AD8516
:100DBC00BE85EF85F88909950895A889B989149697
:100DCC000E945B07EE83FF83AE81BF810895A889E3
:100DDC00B98914960E945B07EA87FB870895DE01A8
:100DEC001E960E940D070E945B070895DE011C965B
:100DFC000E940D070E945B070895109639F08AEF48
:100E0C0090E00197F1F7A8951197C9F70895002480
:100E1C00AF0DB01D0895F195E195F04008956F2F39
:100E2C00660F660B762F0895FA9FF02DEB9FF00D51
:100E3C00EA9FE02DF10D08952AD0F6DF0EF4EBDFDA
:100E4C0008950024112490E1AA0FBB1F001C111C53
:100E5C000E1A1F0A18F40E0E1F1E01C0A1609A95DF
:100E6C0099F7FD01D001089512D0EBDF0EF4D3DF1A
:100E7C000895E894B7FF04C0A095B09511966894B6
:100E8C00F7FDC9DFDEDFFD010EF4C5DF0895E89440
:100E9C00F7FF02C0C0DF6894B7FF06C0A095B095FD
:100EAC00119600F8039400FA0895ED91FC911197B6
:100EBC0008950590F491E02D08957A936A93FA932E
:100ECC00EA9308955A934A933A932A931A930A935E
:100EDC0008955D814C813B812A8119810881089597
:00000001FF
